{
  "contractName": "DriverRole",
  "abi": [
    {
      "inputs": [],
      "payable": false,
      "stateMutability": "nonpayable",
      "type": "constructor"
    },
    {
      "anonymous": false,
      "inputs": [
        {
          "indexed": true,
          "internalType": "address",
          "name": "account",
          "type": "address"
        }
      ],
      "name": "DriverAdded",
      "type": "event"
    },
    {
      "anonymous": false,
      "inputs": [
        {
          "indexed": true,
          "internalType": "address",
          "name": "account",
          "type": "address"
        }
      ],
      "name": "DriverRemoved",
      "type": "event"
    },
    {
      "constant": true,
      "inputs": [
        {
          "internalType": "address",
          "name": "account",
          "type": "address"
        }
      ],
      "name": "isDriver",
      "outputs": [
        {
          "internalType": "bool",
          "name": "",
          "type": "bool"
        }
      ],
      "payable": false,
      "stateMutability": "view",
      "type": "function"
    },
    {
      "constant": false,
      "inputs": [
        {
          "internalType": "address",
          "name": "account",
          "type": "address"
        }
      ],
      "name": "addDriver",
      "outputs": [],
      "payable": false,
      "stateMutability": "nonpayable",
      "type": "function"
    },
    {
      "constant": false,
      "inputs": [],
      "name": "renounceDriver",
      "outputs": [],
      "payable": false,
      "stateMutability": "nonpayable",
      "type": "function"
    }
  ],
  "bytecode": "0x608060405234801561001057600080fd5b506100203361002560201b60201c565b610154565b61003d81600061008360201b6102431790919060201c565b8073ffffffffffffffffffffffffffffffffffffffff167fdbbfb8e5c4472ca1cb6356990ceb7c8914641ae04bca62338db7e815c3e5b93c60405160405180910390a250565b61009382826100fb60201b60201c565b1561009d57600080fd5b60018260000160008373ffffffffffffffffffffffffffffffffffffffff1673ffffffffffffffffffffffffffffffffffffffff16815260200190815260200160002060006101000a81548160ff0219169083151502179055505050565b60008260000160008373ffffffffffffffffffffffffffffffffffffffff1673ffffffffffffffffffffffffffffffffffffffff16815260200190815260200160002060009054906101000a900460ff16905092915050565b61035b806101636000396000f3fe608060405234801561001057600080fd5b50600436106100415760003560e01c806363a411c014610046578063ab9420361461008a578063d315e083146100e6575b600080fd5b6100886004803603602081101561005c57600080fd5b81019080803573ffffffffffffffffffffffffffffffffffffffff1690602001909291905050506100f0565b005b6100cc600480360360208110156100a057600080fd5b81019080803573ffffffffffffffffffffffffffffffffffffffff16906020019092919050505061010e565b604051808215151515815260200191505060405180910390f35b6100ee61012b565b005b6100f93361010e565b61010257600080fd5b61010b81610136565b50565b600061012482600061019090919063ffffffff16565b9050919050565b610134336101e9565b565b61014a81600061024390919063ffffffff16565b8073ffffffffffffffffffffffffffffffffffffffff167fdbbfb8e5c4472ca1cb6356990ceb7c8914641ae04bca62338db7e815c3e5b93c60405160405180910390a250565b60008260000160008373ffffffffffffffffffffffffffffffffffffffff1673ffffffffffffffffffffffffffffffffffffffff16815260200190815260200160002060009054906101000a900460ff16905092915050565b6101fd8160006102b590919063ffffffff16565b8073ffffffffffffffffffffffffffffffffffffffff167fe5b325d2c088e6de57ff59e6a9e91e46c56ce6c1f8d7b80e3ab7ce5b8cd7e4b660405160405180910390a250565b61024d8282610190565b1561025757600080fd5b60018260000160008373ffffffffffffffffffffffffffffffffffffffff1673ffffffffffffffffffffffffffffffffffffffff16815260200190815260200160002060006101000a81548160ff0219169083151502179055505050565b6102bf8282610190565b6102c857600080fd5b60008260000160008373ffffffffffffffffffffffffffffffffffffffff1673ffffffffffffffffffffffffffffffffffffffff16815260200190815260200160002060006101000a81548160ff021916908315150217905550505056fea265627a7a72315820a31b335c1cab01c26ff139b76a4041a484fdaa4e5663adae52aa3c46a903705a64736f6c63430005100032",
  "source": "pragma solidity >=0.4.24;\n\n// Import the library 'Roles'\nimport \"./Roles.sol\";\nimport '../accessControl/User.sol';\n\n// Define a contract 'DriverRole' to manage this role - add, remove, check\ncontract DriverRole {\n  using Roles for Roles.Role;\n\n  // Define 2 events, one for Adding, and other for Removing\n  event DriverAdded(address indexed account);\n  event DriverRemoved(address indexed account);\n\n  // Define a struct 'Drivers' by inheriting from 'Roles' library, struct Role\n  Roles.Role private Drivers;\n\n  // In the constructor make the address that deploys this contract the 1st Driver\n  constructor() public {\n    _addDriver(msg.sender);\n  }\n\n  // Define a modifier that checks to see if msg.sender has the appropriate role\n  modifier onlyDriver() {\n    require(isDriver(msg.sender));\n    _;\n  }\n\n  // Define a function 'isDriver' to check this role\n  function isDriver(address account) public view returns (bool) {\n    return Drivers.has(account);\n  }\n\n  // Define a function 'addDriver' that adds this role\n  function addDriver(address account) public onlyDriver\n  {\n    _addDriver(account);\n  }\n\n  // Define a function 'renounceDriver' to renounce this role\n  function renounceDriver() public {\n    _removeDriver(msg.sender);\n  }\n\n  // Define an internal function '_addDriver' to add this role, called by 'addDriver'\n  function _addDriver(address account) internal {\n    Drivers.add(account);\n    emit DriverAdded(account);\n  }\n\n  // Define an internal function '_removeDriver' to remove this role, called by 'removeDriver'\n  function _removeDriver(address account) internal {\n    Drivers.remove(account);\n    emit DriverRemoved(account);\n  }\n}\n",
  "sourcePath": "/Users/tucker/Documents/SmartContracts/Decentralized-RideShare/contracts/accessControl/Driver.sol",
  "compiler": {
    "name": "solc",
    "version": "0.5.16+commit.9c3226ce.Emscripten.clang"
  },
  "schemaVersion": "3.3.3",
  "updatedAt": "2021-04-19T01:57:41.516Z",
  "devdoc": {
    "methods": {}
  },
  "userdoc": {
    "methods": {}
  }
}