{
  "contractName": "Escrow",
  "abi": [
    {
      "inputs": [
        {
          "internalType": "address",
          "name": "_user",
          "type": "address"
        }
      ],
      "payable": false,
      "stateMutability": "nonpayable",
      "type": "constructor"
    },
    {
      "anonymous": false,
      "inputs": [
        {
          "indexed": true,
          "internalType": "address",
          "name": "orderId",
          "type": "address"
        },
        {
          "indexed": true,
          "internalType": "address",
          "name": "driver",
          "type": "address"
        },
        {
          "indexed": false,
          "internalType": "uint256",
          "name": "value",
          "type": "uint256"
        },
        {
          "indexed": false,
          "internalType": "enum Escrow.PaymentStatus",
          "name": "status",
          "type": "uint8"
        }
      ],
      "name": "PaymentCompletion",
      "type": "event"
    },
    {
      "anonymous": false,
      "inputs": [
        {
          "indexed": true,
          "internalType": "address",
          "name": "orderId",
          "type": "address"
        },
        {
          "indexed": true,
          "internalType": "address",
          "name": "driver",
          "type": "address"
        },
        {
          "indexed": false,
          "internalType": "uint256",
          "name": "value",
          "type": "uint256"
        }
      ],
      "name": "PaymentCreation",
      "type": "event"
    },
    {
      "anonymous": false,
      "inputs": [
        {
          "indexed": true,
          "internalType": "address",
          "name": "oldOwner",
          "type": "address"
        },
        {
          "indexed": true,
          "internalType": "address",
          "name": "newOwner",
          "type": "address"
        }
      ],
      "name": "TransferOwnership",
      "type": "event"
    },
    {
      "constant": true,
      "inputs": [],
      "name": "isOwner",
      "outputs": [
        {
          "internalType": "bool",
          "name": "",
          "type": "bool"
        }
      ],
      "payable": false,
      "stateMutability": "view",
      "type": "function"
    },
    {
      "constant": true,
      "inputs": [],
      "name": "ownerLookup",
      "outputs": [
        {
          "internalType": "address",
          "name": "",
          "type": "address"
        }
      ],
      "payable": false,
      "stateMutability": "view",
      "type": "function"
    },
    {
      "constant": true,
      "inputs": [
        {
          "internalType": "address",
          "name": "",
          "type": "address"
        }
      ],
      "name": "payments",
      "outputs": [
        {
          "internalType": "address",
          "name": "driver",
          "type": "address"
        },
        {
          "internalType": "uint256",
          "name": "value",
          "type": "uint256"
        },
        {
          "internalType": "enum Escrow.PaymentStatus",
          "name": "status",
          "type": "uint8"
        },
        {
          "internalType": "bool",
          "name": "refundApproved",
          "type": "bool"
        }
      ],
      "payable": false,
      "stateMutability": "view",
      "type": "function"
    },
    {
      "constant": false,
      "inputs": [],
      "name": "renounceOwnership",
      "outputs": [],
      "payable": false,
      "stateMutability": "nonpayable",
      "type": "function"
    },
    {
      "constant": false,
      "inputs": [
        {
          "internalType": "address",
          "name": "newOwner",
          "type": "address"
        }
      ],
      "name": "transferOwnership",
      "outputs": [],
      "payable": false,
      "stateMutability": "nonpayable",
      "type": "function"
    },
    {
      "constant": false,
      "inputs": [
        {
          "internalType": "address",
          "name": "_orderId",
          "type": "address"
        },
        {
          "internalType": "address",
          "name": "_driver",
          "type": "address"
        },
        {
          "internalType": "uint256",
          "name": "_value",
          "type": "uint256"
        }
      ],
      "name": "createPayment",
      "outputs": [],
      "payable": true,
      "stateMutability": "payable",
      "type": "function"
    },
    {
      "constant": false,
      "inputs": [
        {
          "internalType": "address",
          "name": "_orderId",
          "type": "address"
        }
      ],
      "name": "release",
      "outputs": [],
      "payable": false,
      "stateMutability": "nonpayable",
      "type": "function"
    }
  ],
  "bytecode": "0x608060405234801561001057600080fd5b506040516107373803806107378339818101604052602081101561003357600080fd5b8101908080519060200190929190505050336000806101000a81548173ffffffffffffffffffffffffffffffffffffffff021916908373ffffffffffffffffffffffffffffffffffffffff1602179055506000809054906101000a900473ffffffffffffffffffffffffffffffffffffffff1673ffffffffffffffffffffffffffffffffffffffff16600073ffffffffffffffffffffffffffffffffffffffff167f5c486528ec3e3f0ea91181cff8116f02bfa350e03b8b6f12e00765adbb5af85c60405160405180910390a380600460006101000a81548173ffffffffffffffffffffffffffffffffffffffff021916908373ffffffffffffffffffffffffffffffffffffffff160217905550506105e6806101516000396000f3fe6080604052600436106100705760003560e01c80638f32d59b1161004e5780638f32d59b1461014b578063e02e64ea1461017a578063e2982c21146101d1578063f2fde38b1461028957610070565b80631916558714610075578063715018a6146100c6578063794d0ed8146100dd575b600080fd5b34801561008157600080fd5b506100c46004803603602081101561009857600080fd5b81019080803573ffffffffffffffffffffffffffffffffffffffff1690602001909291905050506102da565b005b3480156100d257600080fd5b506100db6102dd565b005b610149600480360360608110156100f357600080fd5b81019080803573ffffffffffffffffffffffffffffffffffffffff169060200190929190803573ffffffffffffffffffffffffffffffffffffffff169060200190929190803590602001909291905050506103ad565b005b34801561015757600080fd5b506101606103b2565b604051808215151515815260200191505060405180910390f35b34801561018657600080fd5b5061018f610409565b604051808273ffffffffffffffffffffffffffffffffffffffff1673ffffffffffffffffffffffffffffffffffffffff16815260200191505060405180910390f35b3480156101dd57600080fd5b50610220600480360360208110156101f457600080fd5b81019080803573ffffffffffffffffffffffffffffffffffffffff169060200190929190505050610432565b604051808573ffffffffffffffffffffffffffffffffffffffff1673ffffffffffffffffffffffffffffffffffffffff16815260200184815260200183600281111561026857fe5b60ff1681526020018215151515815260200194505050505060405180910390f35b34801561029557600080fd5b506102d8600480360360208110156102ac57600080fd5b81019080803573ffffffffffffffffffffffffffffffffffffffff16906020019092919050505061049c565b005b50565b6102e56103b2565b6102ee57600080fd5b600073ffffffffffffffffffffffffffffffffffffffff166000809054906101000a900473ffffffffffffffffffffffffffffffffffffffff1673ffffffffffffffffffffffffffffffffffffffff167f5c486528ec3e3f0ea91181cff8116f02bfa350e03b8b6f12e00765adbb5af85c60405160405180910390a360008060006101000a81548173ffffffffffffffffffffffffffffffffffffffff021916908373ffffffffffffffffffffffffffffffffffffffff160217905550565b505050565b60008060009054906101000a900473ffffffffffffffffffffffffffffffffffffffff1673ffffffffffffffffffffffffffffffffffffffff163373ffffffffffffffffffffffffffffffffffffffff1614905090565b60008060009054906101000a900473ffffffffffffffffffffffffffffffffffffffff16905090565b60036020528060005260406000206000915090508060000160009054906101000a900473ffffffffffffffffffffffffffffffffffffffff16908060010154908060020160009054906101000a900460ff16908060020160019054906101000a900460ff16905084565b6104a46103b2565b6104ad57600080fd5b6104b6816104b9565b50565b600073ffffffffffffffffffffffffffffffffffffffff168173ffffffffffffffffffffffffffffffffffffffff1614156104f357600080fd5b8073ffffffffffffffffffffffffffffffffffffffff166000809054906101000a900473ffffffffffffffffffffffffffffffffffffffff1673ffffffffffffffffffffffffffffffffffffffff167f5c486528ec3e3f0ea91181cff8116f02bfa350e03b8b6f12e00765adbb5af85c60405160405180910390a3806000806101000a81548173ffffffffffffffffffffffffffffffffffffffff021916908373ffffffffffffffffffffffffffffffffffffffff1602179055505056fea265627a7a72315820e8eb05e60b5f69aeea76bc41f250df8ba229eddb6f013932e36f6807da68693c64736f6c63430005100032",
  "source": "pragma solidity >=0.4.24;\n\n//import \"openzeppelin-solidity/contracts/token/ERC20/ERC20.sol\";\nimport '../core/Ownable.sol';\nimport '../core/RideToken.sol';\n\ncontract Escrow is Ownable {\n    enum PaymentStatus { Pending, Completed, Refunded }\n\n    ERC20Basic token;\n    ERC20Basic driverToken;\n\n    event PaymentCreation(address indexed orderId, address indexed driver, uint value);\n    event PaymentCompletion(address indexed orderId, address indexed driver, uint value, PaymentStatus status);\n\n    struct Payment {\n        address driver;\n        uint value;\n        PaymentStatus status;\n        bool refundApproved;\n    }\n\n    mapping(address => Payment) public payments;\n    //ERC20 public currency;\n    address user;\n    //address payable driver;\n\n   constructor(address _user) public {\n        //currency = _currency\n        user = _user;\n        //webshop = Webshop(msg.sender);\n    }\n\n    function createPayment(address _orderId,address _driver, uint _value) public payable{\n        //token = RideToken(msg.sender);\n        //token.mint();\n        //token.approve(_driver,_value);\n        //token.deposit.value(msg.value)();\n        //payments[_orderId] = Payment(_driver, _value, PaymentStatus.Pending, false);\n        //emit PaymentCreation(_orderId, _driver, _value);\n    }\n\n    function release(address _orderId) external {\n        //driverToken = RideToken(msg.sender);\n\n        //token.transferFrom(user,payments[_orderId].driver,payments[_orderId].value);\n        //token.burn(payments[_orderId].value);\n        //driverToken.withdraw(payments[_orderId].value);\n        //completePayment(_orderId, collectionAddress, PaymentStatus.Completed);\n        //token.transferFrom\n    }\n\n    //function refund(address _orderId) external {\n    //    completePayment(_orderId, msg.sender, PaymentStatus.Refunded);\n    //}\n\n  //  function approveRefund(address _orderId) external {\n//        require(msg.sender == collectionAddress);\n  //      Payment storage payment = payments[_orderId];\n  //      payment.refundApproved = true;\n    //}\n/*\n    function completePayment(address _orderId, address _receiver, PaymentStatus _status) private {\n        Payment storage payment = payments[_orderId];\n        require(payment.customer == msg.sender);\n        require(payment.status == PaymentStatus.Pending);\n        if (_status == PaymentStatus.Refunded) {\n            require(payment.refundApproved);\n        }\n        token.transfer(_receiver, payment.value);\n        //webshop.changeOrderStatus(_orderId, Webshop.OrderStatus.Completed);\n        payment.status = _status;\n        emit PaymentCompletion(_orderId, payment.driver, payment.value, _status);\n    }\n    */\n}\n",
  "sourcePath": "/Users/tucker/Documents/SmartContracts/Decentralized-RideShare/contracts/core/escrow.sol",
  "compiler": {
    "name": "solc",
    "version": "0.5.16+commit.9c3226ce.Emscripten.clang"
  },
  "schemaVersion": "3.3.3",
  "updatedAt": "2021-04-28T18:47:10.174Z",
  "devdoc": {
    "methods": {}
  },
  "userdoc": {
    "methods": {
      "isOwner()": {
        "notice": "Check if the calling address is the owner of the contract"
      },
      "ownerLookup()": {
        "notice": "Look up the address of the owner"
      },
      "renounceOwnership()": {
        "notice": "Define a function to renounce ownerhip"
      },
      "transferOwnership(address)": {
        "notice": "Define a public function to transfer ownership"
      }
    }
  }
}