{
  "contractName": "Ride",
  "abi": [
    {
      "inputs": [],
      "payable": false,
      "stateMutability": "nonpayable",
      "type": "constructor"
    },
    {
      "anonymous": false,
      "inputs": [
        {
          "indexed": false,
          "internalType": "address",
          "name": "rideID",
          "type": "address"
        }
      ],
      "name": "CanceledRide",
      "type": "event"
    },
    {
      "anonymous": false,
      "inputs": [
        {
          "indexed": false,
          "internalType": "address",
          "name": "rideID",
          "type": "address"
        }
      ],
      "name": "DriverAcceptsRide",
      "type": "event"
    },
    {
      "anonymous": false,
      "inputs": [
        {
          "indexed": false,
          "internalType": "address",
          "name": "rideID",
          "type": "address"
        }
      ],
      "name": "DriverConfirmsDropOff",
      "type": "event"
    },
    {
      "anonymous": false,
      "inputs": [
        {
          "indexed": false,
          "internalType": "address",
          "name": "rideID",
          "type": "address"
        }
      ],
      "name": "PassengerConfirmsPickUp",
      "type": "event"
    },
    {
      "anonymous": false,
      "inputs": [
        {
          "indexed": false,
          "internalType": "address",
          "name": "rideID",
          "type": "address"
        }
      ],
      "name": "PassengerRequestRide",
      "type": "event"
    },
    {
      "anonymous": false,
      "inputs": [
        {
          "indexed": true,
          "internalType": "address",
          "name": "oldOwner",
          "type": "address"
        },
        {
          "indexed": true,
          "internalType": "address",
          "name": "newOwner",
          "type": "address"
        }
      ],
      "name": "TransferOwnership",
      "type": "event"
    },
    {
      "constant": true,
      "inputs": [],
      "name": "isOwner",
      "outputs": [
        {
          "internalType": "bool",
          "name": "",
          "type": "bool"
        }
      ],
      "payable": false,
      "stateMutability": "view",
      "type": "function"
    },
    {
      "constant": true,
      "inputs": [],
      "name": "ownerLookup",
      "outputs": [
        {
          "internalType": "address",
          "name": "",
          "type": "address"
        }
      ],
      "payable": false,
      "stateMutability": "view",
      "type": "function"
    },
    {
      "constant": false,
      "inputs": [],
      "name": "renounceOwnership",
      "outputs": [],
      "payable": false,
      "stateMutability": "nonpayable",
      "type": "function"
    },
    {
      "constant": false,
      "inputs": [
        {
          "internalType": "address",
          "name": "newOwner",
          "type": "address"
        }
      ],
      "name": "transferOwnership",
      "outputs": [],
      "payable": false,
      "stateMutability": "nonpayable",
      "type": "function"
    },
    {
      "constant": false,
      "inputs": [],
      "name": "kill",
      "outputs": [],
      "payable": false,
      "stateMutability": "nonpayable",
      "type": "function"
    },
    {
      "constant": false,
      "inputs": [
        {
          "internalType": "address",
          "name": "_rideID",
          "type": "address"
        }
      ],
      "name": "cancelRide",
      "outputs": [],
      "payable": true,
      "stateMutability": "payable",
      "type": "function"
    },
    {
      "constant": false,
      "inputs": [
        {
          "internalType": "string",
          "name": "_passengerName",
          "type": "string"
        },
        {
          "internalType": "string",
          "name": "_passengerPickUpAddress",
          "type": "string"
        },
        {
          "internalType": "string",
          "name": "_passengerDropOffAddress",
          "type": "string"
        },
        {
          "internalType": "string",
          "name": "_passengerVehicleRequestType",
          "type": "string"
        },
        {
          "internalType": "uint256",
          "name": "_ridePrice",
          "type": "uint256"
        }
      ],
      "name": "passengerRequestRide",
      "outputs": [],
      "payable": true,
      "stateMutability": "payable",
      "type": "function"
    },
    {
      "constant": false,
      "inputs": [
        {
          "internalType": "address",
          "name": "_rideID",
          "type": "address"
        },
        {
          "internalType": "string",
          "name": "_driverVehicleDiscription",
          "type": "string"
        }
      ],
      "name": "driverAcceptsRide",
      "outputs": [],
      "payable": false,
      "stateMutability": "nonpayable",
      "type": "function"
    },
    {
      "constant": false,
      "inputs": [
        {
          "internalType": "address",
          "name": "_rideID",
          "type": "address"
        }
      ],
      "name": "passengerConfirmsPickUp",
      "outputs": [],
      "payable": false,
      "stateMutability": "nonpayable",
      "type": "function"
    },
    {
      "constant": false,
      "inputs": [
        {
          "internalType": "address",
          "name": "_rideID",
          "type": "address"
        }
      ],
      "name": "driverConfirmsDropOff",
      "outputs": [],
      "payable": false,
      "stateMutability": "nonpayable",
      "type": "function"
    },
    {
      "constant": true,
      "inputs": [],
      "name": "fetchDriverBuffer",
      "outputs": [
        {
          "internalType": "address",
          "name": "rideID",
          "type": "address"
        }
      ],
      "payable": false,
      "stateMutability": "view",
      "type": "function"
    },
    {
      "constant": true,
      "inputs": [
        {
          "internalType": "address",
          "name": "_rideID",
          "type": "address"
        }
      ],
      "name": "fetchRideItemBufferOne",
      "outputs": [
        {
          "internalType": "address",
          "name": "passengerID",
          "type": "address"
        },
        {
          "internalType": "string",
          "name": "passengerName",
          "type": "string"
        },
        {
          "internalType": "string",
          "name": "passengerVehicleRequestType",
          "type": "string"
        },
        {
          "internalType": "string",
          "name": "passengerPickUpAddress",
          "type": "string"
        },
        {
          "internalType": "string",
          "name": "passengerDropOffAddress",
          "type": "string"
        }
      ],
      "payable": false,
      "stateMutability": "view",
      "type": "function"
    },
    {
      "constant": true,
      "inputs": [
        {
          "internalType": "address",
          "name": "_rideID",
          "type": "address"
        }
      ],
      "name": "fetchRideItemBufferTwo",
      "outputs": [
        {
          "internalType": "address",
          "name": "driverID",
          "type": "address"
        },
        {
          "internalType": "string",
          "name": "driverVehicleDiscription",
          "type": "string"
        }
      ],
      "payable": false,
      "stateMutability": "view",
      "type": "function"
    },
    {
      "constant": true,
      "inputs": [
        {
          "internalType": "address",
          "name": "_rideID",
          "type": "address"
        }
      ],
      "name": "fetchRideItemBufferThree",
      "outputs": [
        {
          "internalType": "uint256",
          "name": "rideDate",
          "type": "uint256"
        },
        {
          "internalType": "uint256",
          "name": "ridePrice",
          "type": "uint256"
        },
        {
          "internalType": "enum Ride.State",
          "name": "rideState",
          "type": "uint8"
        }
      ],
      "payable": false,
      "stateMutability": "view",
      "type": "function"
    },
    {
      "constant": true,
      "inputs": [
        {
          "internalType": "address",
          "name": "_rideID",
          "type": "address"
        }
      ],
      "name": "fetchRideItemHistory",
      "outputs": [
        {
          "internalType": "uint256",
          "name": "BlockPassengerToContract",
          "type": "uint256"
        },
        {
          "internalType": "uint256",
          "name": "BlockContractToDriver",
          "type": "uint256"
        }
      ],
      "payable": false,
      "stateMutability": "view",
      "type": "function"
    }
  ],
  "bytecode": "0x608060405234801561001057600080fd5b50336000806101000a81548173ffffffffffffffffffffffffffffffffffffffff021916908373ffffffffffffffffffffffffffffffffffffffff1602179055506000809054906101000a900473ffffffffffffffffffffffffffffffffffffffff1673ffffffffffffffffffffffffffffffffffffffff16600073ffffffffffffffffffffffffffffffffffffffff167f5c486528ec3e3f0ea91181cff8116f02bfa350e03b8b6f12e00765adbb5af85c60405160405180910390a333600160006101000a81548173ffffffffffffffffffffffffffffffffffffffff021916908373ffffffffffffffffffffffffffffffffffffffff1602179055506141a08061011d6000396000f3fe6080604052600436106100e85760003560e01c80634b1d01541161008a578063d184075011610059578063d184075014610952578063e02e64ea146109a3578063f2fde38b146109fa578063fa4e957114610a4b576100e8565b80634b1d0154146107cb578063715018a61461080f5780638f32d59b14610826578063b2d8b56614610855576100e8565b80633219995d116100c65780633219995d1461046d57806336232968146104d957806341c0e1b51461052a578063484844b214610541576100e8565b8063060417fc146100ed57806308b1fda214610144578063232d3ae61461022c575b600080fd5b3480156100f957600080fd5b50610102610acc565b604051808273ffffffffffffffffffffffffffffffffffffffff1673ffffffffffffffffffffffffffffffffffffffff16815260200191505060405180910390f35b34801561015057600080fd5b5061022a6004803603604081101561016757600080fd5b81019080803573ffffffffffffffffffffffffffffffffffffffff169060200190929190803590602001906401000000008111156101a457600080fd5b8201836020820111156101b657600080fd5b803590602001918460018302840111640100000000831117156101d857600080fd5b91908080601f016020809104026020016040519081016040528093929190818152602001838380828437600081840152601f19601f820116905080830192505050505050509192919290505050610b38565b005b34801561023857600080fd5b5061027b6004803603602081101561024f57600080fd5b81019080803573ffffffffffffffffffffffffffffffffffffffff169060200190929190505050610e95565b604051808673ffffffffffffffffffffffffffffffffffffffff1673ffffffffffffffffffffffffffffffffffffffff16815260200180602001806020018060200180602001858103855289818151815260200191508051906020019080838360005b838110156102f95780820151818401526020810190506102de565b50505050905090810190601f1680156103265780820380516001836020036101000a031916815260200191505b50858103845288818151815260200191508051906020019080838360005b8381101561035f578082015181840152602081019050610344565b50505050905090810190601f16801561038c5780820380516001836020036101000a031916815260200191505b50858103835287818151815260200191508051906020019080838360005b838110156103c55780820151818401526020810190506103aa565b50505050905090810190601f1680156103f25780820380516001836020036101000a031916815260200191505b50858103825286818151815260200191508051906020019080838360005b8381101561042b578082015181840152602081019050610410565b50505050905090810190601f1680156104585780820380516001836020036101000a031916815260200191505b50995050505050505050505060405180910390f35b34801561047957600080fd5b506104bc6004803603602081101561049057600080fd5b81019080803573ffffffffffffffffffffffffffffffffffffffff1690602001909291905050506113f1565b604051808381526020018281526020019250505060405180910390f35b3480156104e557600080fd5b50610528600480360360208110156104fc57600080fd5b81019080803573ffffffffffffffffffffffffffffffffffffffff169060200190929190505050611470565b005b34801561053657600080fd5b5061053f611907565b005b6107c9600480360360a081101561055757600080fd5b810190808035906020019064010000000081111561057457600080fd5b82018360208201111561058657600080fd5b803590602001918460018302840111640100000000831117156105a857600080fd5b91908080601f016020809104026020016040519081016040528093929190818152602001838380828437600081840152601f19601f8201169050808301925050505050505091929192908035906020019064010000000081111561060b57600080fd5b82018360208201111561061d57600080fd5b8035906020019184600183028401116401000000008311171561063f57600080fd5b91908080601f016020809104026020016040519081016040528093929190818152602001838380828437600081840152601f19601f820116905080830192505050505050509192919290803590602001906401000000008111156106a257600080fd5b8201836020820111156106b457600080fd5b803590602001918460018302840111640100000000831117156106d657600080fd5b91908080601f016020809104026020016040519081016040528093929190818152602001838380828437600081840152601f19601f8201169050808301925050505050505091929192908035906020019064010000000081111561073957600080fd5b82018360208201111561074b57600080fd5b8035906020019184600183028401116401000000008311171561076d57600080fd5b91908080601f016020809104026020016040519081016040528093929190818152602001838380828437600081840152601f19601f820116905080830192505050505050509192919290803590602001909291905050506119a7565b005b61080d600480360360208110156107e157600080fd5b81019080803573ffffffffffffffffffffffffffffffffffffffff16906020019092919050505061202f565b005b34801561081b57600080fd5b50610824612ce7565b005b34801561083257600080fd5b5061083b612e4c565b604051808215151515815260200191505060405180910390f35b34801561086157600080fd5b506108a46004803603602081101561087857600080fd5b81019080803573ffffffffffffffffffffffffffffffffffffffff169060200190929190505050612ea3565b604051808373ffffffffffffffffffffffffffffffffffffffff1673ffffffffffffffffffffffffffffffffffffffff16815260200180602001828103825283818151815260200191508051906020019080838360005b838110156109165780820151818401526020810190506108fb565b50505050905090810190601f1680156109435780820380516001836020036101000a031916815260200191505b50935050505060405180910390f35b34801561095e57600080fd5b506109a16004803603602081101561097557600080fd5b81019080803573ffffffffffffffffffffffffffffffffffffffff1690602001909291905050506133da565b005b3480156109af57600080fd5b506109b86136bf565b604051808273ffffffffffffffffffffffffffffffffffffffff1673ffffffffffffffffffffffffffffffffffffffff16815260200191505060405180910390f35b348015610a0657600080fd5b50610a4960048036036020811015610a1d57600080fd5b81019080803573ffffffffffffffffffffffffffffffffffffffff1690602001909291905050506136e8565b005b348015610a5757600080fd5b50610a9a60048036036020811015610a6e57600080fd5b81019080803573ffffffffffffffffffffffffffffffffffffffff16906020019092919050505061379a565b60405180848152602001838152602001826005811115610ab657fe5b60ff168152602001935050505060405180910390f35b600080600460003373ffffffffffffffffffffffffffffffffffffffff1673ffffffffffffffffffffffffffffffffffffffff16815260200190815260200160002060009054906101000a900473ffffffffffffffffffffffffffffffffffffffff1690508091505090565b8160016005811115610b4657fe5b600360008373ffffffffffffffffffffffffffffffffffffffff1673ffffffffffffffffffffffffffffffffffffffff168152602001908152602001600020600b0160009054906101000a900460ff166005811115610ba157fe5b14610bab57600080fd5b82600580811115610bb857fe5b600360008373ffffffffffffffffffffffffffffffffffffffff1673ffffffffffffffffffffffffffffffffffffffff168152602001908152602001600020600b0160009054906101000a900460ff166005811115610c1357fe5b1415610c6a576040517f08c379a000000000000000000000000000000000000000000000000000000000815260040180806020018281038252602181526020018061403d6021913960400191505060405180910390fd5b83600460003373ffffffffffffffffffffffffffffffffffffffff1673ffffffffffffffffffffffffffffffffffffffff16815260200190815260200160002060006101000a81548173ffffffffffffffffffffffffffffffffffffffff021916908373ffffffffffffffffffffffffffffffffffffffff1602179055506002600360008673ffffffffffffffffffffffffffffffffffffffff1673ffffffffffffffffffffffffffffffffffffffff168152602001908152602001600020600b0160006101000a81548160ff02191690836005811115610d4757fe5b0217905550610d5533613cd7565b600360008673ffffffffffffffffffffffffffffffffffffffff1673ffffffffffffffffffffffffffffffffffffffff16815260200190815260200160002060010160006101000a81548173ffffffffffffffffffffffffffffffffffffffff021916908373ffffffffffffffffffffffffffffffffffffffff16021790555082600360008673ffffffffffffffffffffffffffffffffffffffff1673ffffffffffffffffffffffffffffffffffffffff1681526020019081526020016000206008019080519060200190610e2b929190613e39565b507fbfe3587e86941a3cd5f57a8f13f6da9b2602985c9ed1a7c89bd7d4b7ff94f1d384604051808273ffffffffffffffffffffffffffffffffffffffff1673ffffffffffffffffffffffffffffffffffffffff16815260200191505060405180910390a150505050565b6000606080606080610ea5613eb9565b600360008873ffffffffffffffffffffffffffffffffffffffff1673ffffffffffffffffffffffffffffffffffffffff168152602001908152602001600020604051806101800160405290816000820160009054906101000a900473ffffffffffffffffffffffffffffffffffffffff1673ffffffffffffffffffffffffffffffffffffffff1673ffffffffffffffffffffffffffffffffffffffff1681526020016001820160009054906101000a900473ffffffffffffffffffffffffffffffffffffffff1673ffffffffffffffffffffffffffffffffffffffff1673ffffffffffffffffffffffffffffffffffffffff1681526020016002820160009054906101000a900473ffffffffffffffffffffffffffffffffffffffff1673ffffffffffffffffffffffffffffffffffffffff1673ffffffffffffffffffffffffffffffffffffffff1681526020016003820160009054906101000a900473ffffffffffffffffffffffffffffffffffffffff1673ffffffffffffffffffffffffffffffffffffffff1673ffffffffffffffffffffffffffffffffffffffff168152602001600482018054600181600116156101000203166002900480601f0160208091040260200160405190810160405280929190818152602001828054600181600116156101000203166002900480156110e15780601f106110b6576101008083540402835291602001916110e1565b820191906000526020600020905b8154815290600101906020018083116110c457829003601f168201915b50505050508152602001600582018054600181600116156101000203166002900480601f0160208091040260200160405190810160405280929190818152602001828054600181600116156101000203166002900480156111835780601f1061115857610100808354040283529160200191611183565b820191906000526020600020905b81548152906001019060200180831161116657829003601f168201915b50505050508152602001600682018054600181600116156101000203166002900480601f0160208091040260200160405190810160405280929190818152602001828054600181600116156101000203166002900480156112255780601f106111fa57610100808354040283529160200191611225565b820191906000526020600020905b81548152906001019060200180831161120857829003601f168201915b50505050508152602001600782018054600181600116156101000203166002900480601f0160208091040260200160405190810160405280929190818152602001828054600181600116156101000203166002900480156112c75780601f1061129c576101008083540402835291602001916112c7565b820191906000526020600020905b8154815290600101906020018083116112aa57829003601f168201915b50505050508152602001600882018054600181600116156101000203166002900480601f0160208091040260200160405190810160405280929190818152602001828054600181600116156101000203166002900480156113695780601f1061133e57610100808354040283529160200191611369565b820191906000526020600020905b81548152906001019060200180831161134c57829003601f168201915b5050505050815260200160098201548152602001600a8201548152602001600b820160009054906101000a900460ff1660058111156113a457fe5b60058111156113af57fe5b815250509050806040015181608001518260a001518360c001518460e00151849450839350829250819150809050955095509550955095505091939590929450565b6000806113fc613f7d565b600560008573ffffffffffffffffffffffffffffffffffffffff1673ffffffffffffffffffffffffffffffffffffffff168152602001908152602001600020604051806040016040529081600082015481526020016001820154815250509050806000015181602001519250925050915091565b806003600581111561147e57fe5b600360008373ffffffffffffffffffffffffffffffffffffffff1673ffffffffffffffffffffffffffffffffffffffff168152602001908152602001600020600b0160009054906101000a900460ff1660058111156114d957fe5b146114e357600080fd5b600360008373ffffffffffffffffffffffffffffffffffffffff1673ffffffffffffffffffffffffffffffffffffffff16815260200190815260200160002060010160009054906101000a900473ffffffffffffffffffffffffffffffffffffffff168073ffffffffffffffffffffffffffffffffffffffff163373ffffffffffffffffffffffffffffffffffffffff16146115ca576040517f08c379a000000000000000000000000000000000000000000000000000000000815260040180806020018281038252602b8152602001806140e4602b913960400191505060405180910390fd5b826005808111156115d757fe5b600360008373ffffffffffffffffffffffffffffffffffffffff1673ffffffffffffffffffffffffffffffffffffffff168152602001908152602001600020600b0160009054906101000a900460ff16600581111561163257fe5b1415611689576040517f08c379a000000000000000000000000000000000000000000000000000000000815260040180806020018281038252602181526020018061403d6021913960400191505060405180910390fd5b43600560008673ffffffffffffffffffffffffffffffffffffffff1673ffffffffffffffffffffffffffffffffffffffff168152602001908152602001600020600001819055506004600360008673ffffffffffffffffffffffffffffffffffffffff1673ffffffffffffffffffffffffffffffffffffffff168152602001908152602001600020600b0160006101000a81548160ff0219169083600581111561172f57fe5b0217905550600360008573ffffffffffffffffffffffffffffffffffffffff1673ffffffffffffffffffffffffffffffffffffffff16815260200190815260200160002060010160009054906101000a900473ffffffffffffffffffffffffffffffffffffffff1673ffffffffffffffffffffffffffffffffffffffff166108fc600360008773ffffffffffffffffffffffffffffffffffffffff1673ffffffffffffffffffffffffffffffffffffffff168152602001908152602001600020600a01549081150290604051600060405180830381858888f1935050505015801561181e573d6000803e3d6000fd5b506000600460003373ffffffffffffffffffffffffffffffffffffffff1673ffffffffffffffffffffffffffffffffffffffff16815260200190815260200160002060006101000a81548173ffffffffffffffffffffffffffffffffffffffff021916908373ffffffffffffffffffffffffffffffffffffffff1602179055507f5b64479ec7e33459a330d81aa877c0a9483e2c0b088fd439077f1b07ef5ed5b184604051808273ffffffffffffffffffffffffffffffffffffffff1673ffffffffffffffffffffffffffffffffffffffff16815260200191505060405180910390a150505050565b600160009054906101000a900473ffffffffffffffffffffffffffffffffffffffff1673ffffffffffffffffffffffffffffffffffffffff163373ffffffffffffffffffffffffffffffffffffffff1614156119a557600061198a600160009054906101000a900473ffffffffffffffffffffffffffffffffffffffff16613cd7565b90508073ffffffffffffffffffffffffffffffffffffffff16ff5b565b33600260058111156119b557fe5b600360008373ffffffffffffffffffffffffffffffffffffffff1673ffffffffffffffffffffffffffffffffffffffff168152602001908152602001600020600b0160009054906101000a900460ff166005811115611a1057fe5b1415611a67576040517f08c379a00000000000000000000000000000000000000000000000000000000081526004018080602001828103825260338152602001806141396033913960400191505060405180910390fd5b60036005811115611a7457fe5b600360008373ffffffffffffffffffffffffffffffffffffffff1673ffffffffffffffffffffffffffffffffffffffff168152602001908152602001600020600b0160009054906101000a900460ff166005811115611acf57fe5b1415611b26576040517f08c379a00000000000000000000000000000000000000000000000000000000081526004018080602001828103825260338152602001806141396033913960400191505060405180910390fd5b8180341015611b80576040517f08c379a000000000000000000000000000000000000000000000000000000000815260040180806020018281038252602e815260200180614084602e913960400191505060405180910390fd5b8233600082340390508173ffffffffffffffffffffffffffffffffffffffff166108fc829081150290604051600060405180830381858888f19350505050158015611bcf573d6000803e3d6000fd5b50606080611bdb613eb9565b600260009054906101000a900473ffffffffffffffffffffffffffffffffffffffff16816020019073ffffffffffffffffffffffffffffffffffffffff16908173ffffffffffffffffffffffffffffffffffffffff168152505033816060019073ffffffffffffffffffffffffffffffffffffffff16908173ffffffffffffffffffffffffffffffffffffffff1681525050611c7633613cd7565b816040019073ffffffffffffffffffffffffffffffffffffffff16908173ffffffffffffffffffffffffffffffffffffffff16815250508c81608001819052508b8160c001819052508a8160e00181905250898160a00181905250818161010001819052508881610140018181525050428161012001818152505060018161016001906005811115611d0457fe5b90816005811115611d1157fe5b8152505080600360003373ffffffffffffffffffffffffffffffffffffffff1673ffffffffffffffffffffffffffffffffffffffff16815260200190815260200160002060008201518160000160006101000a81548173ffffffffffffffffffffffffffffffffffffffff021916908373ffffffffffffffffffffffffffffffffffffffff16021790555060208201518160010160006101000a81548173ffffffffffffffffffffffffffffffffffffffff021916908373ffffffffffffffffffffffffffffffffffffffff16021790555060408201518160020160006101000a81548173ffffffffffffffffffffffffffffffffffffffff021916908373ffffffffffffffffffffffffffffffffffffffff16021790555060608201518160030160006101000a81548173ffffffffffffffffffffffffffffffffffffffff021916908373ffffffffffffffffffffffffffffffffffffffff1602179055506080820151816004019080519060200190611e8d929190613f97565b5060a0820151816005019080519060200190611eaa929190613f97565b5060c0820151816006019080519060200190611ec7929190613f97565b5060e0820151816007019080519060200190611ee4929190613f97565b50610100820151816008019080519060200190611f02929190613f97565b50610120820151816009015561014082015181600a015561016082015181600b0160006101000a81548160ff02191690836005811115611f3e57fe5b02179055509050506000611f50613f7d565b438160000181815250508181602001818152505080600560003373ffffffffffffffffffffffffffffffffffffffff1673ffffffffffffffffffffffffffffffffffffffff16815260200190815260200160002060008201518160000155602082015181600101559050507f52d80ba20fc6a1a1d04897b91ee444bfe4a1b38ade3786ae0c7bf6c628b8100633604051808273ffffffffffffffffffffffffffffffffffffffff1673ffffffffffffffffffffffffffffffffffffffff16815260200191505060405180910390a1505050505050505050505050505050565b80600360008273ffffffffffffffffffffffffffffffffffffffff1673ffffffffffffffffffffffffffffffffffffffff16815260200190815260200160002060010160009054906101000a900473ffffffffffffffffffffffffffffffffffffffff1673ffffffffffffffffffffffffffffffffffffffff163373ffffffffffffffffffffffffffffffffffffffff1614806121595750600360008273ffffffffffffffffffffffffffffffffffffffff1673ffffffffffffffffffffffffffffffffffffffff16815260200190815260200160002060020160009054906101000a900473ffffffffffffffffffffffffffffffffffffffff1673ffffffffffffffffffffffffffffffffffffffff163373ffffffffffffffffffffffffffffffffffffffff16145b6121ae576040517f08c379a000000000000000000000000000000000000000000000000000000000815260040180806020018281038252602a81526020018061410f602a913960400191505060405180910390fd5b81600460058111156121bc57fe5b600360008373ffffffffffffffffffffffffffffffffffffffff1673ffffffffffffffffffffffffffffffffffffffff168152602001908152602001600020600b0160009054906101000a900460ff16600581111561221757fe5b141561226e576040517f08c379a000000000000000000000000000000000000000000000000000000000815260040180806020018281038252602681526020018061405e6026913960400191505060405180910390fd5b8260058081111561227b57fe5b600360008373ffffffffffffffffffffffffffffffffffffffff1673ffffffffffffffffffffffffffffffffffffffff168152602001908152602001600020600b0160009054906101000a900460ff1660058111156122d657fe5b141561232d576040517f08c379a000000000000000000000000000000000000000000000000000000000815260040180806020018281038252602181526020018061403d6021913960400191505060405180910390fd5b6003600581111561233a57fe5b600360008673ffffffffffffffffffffffffffffffffffffffff1673ffffffffffffffffffffffffffffffffffffffff168152602001908152602001600020600b0160009054906101000a900460ff16600581111561239557fe5b1415612754576005600360008673ffffffffffffffffffffffffffffffffffffffff1673ffffffffffffffffffffffffffffffffffffffff168152602001908152602001600020600b0160006101000a81548160ff021916908360058111156123fa57fe5b0217905550600061246c61271061245e6109c4600360008a73ffffffffffffffffffffffffffffffffffffffff1673ffffffffffffffffffffffffffffffffffffffff168152602001908152602001600020600a0154613ce190919063ffffffff16565b613d1b90919063ffffffff16565b9050600081600360008873ffffffffffffffffffffffffffffffffffffffff1673ffffffffffffffffffffffffffffffffffffffff168152602001908152602001600020600a0154039050600360008773ffffffffffffffffffffffffffffffffffffffff1673ffffffffffffffffffffffffffffffffffffffff16815260200190815260200160002060020160009054906101000a900473ffffffffffffffffffffffffffffffffffffffff1673ffffffffffffffffffffffffffffffffffffffff166108fc829081150290604051600060405180830381858888f1935050505015801561255f573d6000803e3d6000fd5b50600360008773ffffffffffffffffffffffffffffffffffffffff1673ffffffffffffffffffffffffffffffffffffffff16815260200190815260200160002060010160009054906101000a900473ffffffffffffffffffffffffffffffffffffffff1673ffffffffffffffffffffffffffffffffffffffff166108fc839081150290604051600060405180830381858888f19350505050158015612608573d6000803e3d6000fd5b50600060046000600360008a73ffffffffffffffffffffffffffffffffffffffff1673ffffffffffffffffffffffffffffffffffffffff16815260200190815260200160002060010160009054906101000a900473ffffffffffffffffffffffffffffffffffffffff1673ffffffffffffffffffffffffffffffffffffffff1673ffffffffffffffffffffffffffffffffffffffff16815260200190815260200160002060006101000a81548173ffffffffffffffffffffffffffffffffffffffff021916908373ffffffffffffffffffffffffffffffffffffffff1602179055507fce27f1037a1f16850157d2c9e7b76b9503e0cf3a70920a13b0921f6882d4806986604051808273ffffffffffffffffffffffffffffffffffffffff1673ffffffffffffffffffffffffffffffffffffffff16815260200191505060405180910390a15050612ce1565b6002600581111561276157fe5b600360008673ffffffffffffffffffffffffffffffffffffffff1673ffffffffffffffffffffffffffffffffffffffff168152602001908152602001600020600b0160009054906101000a900460ff1660058111156127bc57fe5b1480156128565750600360008573ffffffffffffffffffffffffffffffffffffffff1673ffffffffffffffffffffffffffffffffffffffff16815260200190815260200160002060010160009054906101000a900473ffffffffffffffffffffffffffffffffffffffff1673ffffffffffffffffffffffffffffffffffffffff163373ffffffffffffffffffffffffffffffffffffffff16145b15612a8e576001600360008673ffffffffffffffffffffffffffffffffffffffff1673ffffffffffffffffffffffffffffffffffffffff168152602001908152602001600020600b0160006101000a81548160ff021916908360058111156128ba57fe5b02179055506000600460003373ffffffffffffffffffffffffffffffffffffffff1673ffffffffffffffffffffffffffffffffffffffff16815260200190815260200160002060006101000a81548173ffffffffffffffffffffffffffffffffffffffff021916908373ffffffffffffffffffffffffffffffffffffffff16021790555060405180602001604052806000815250600360008673ffffffffffffffffffffffffffffffffffffffff1673ffffffffffffffffffffffffffffffffffffffff16815260200190815260200160002060080190805190602001906129a3929190613e39565b506000600360008673ffffffffffffffffffffffffffffffffffffffff1673ffffffffffffffffffffffffffffffffffffffff16815260200190815260200160002060010160006101000a81548173ffffffffffffffffffffffffffffffffffffffff021916908373ffffffffffffffffffffffffffffffffffffffff1602179055507f52d80ba20fc6a1a1d04897b91ee444bfe4a1b38ade3786ae0c7bf6c628b8100684604051808273ffffffffffffffffffffffffffffffffffffffff1673ffffffffffffffffffffffffffffffffffffffff16815260200191505060405180910390a1612ce0565b6005600360008673ffffffffffffffffffffffffffffffffffffffff1673ffffffffffffffffffffffffffffffffffffffff168152602001908152602001600020600b0160006101000a81548160ff02191690836005811115612aed57fe5b0217905550600360008573ffffffffffffffffffffffffffffffffffffffff1673ffffffffffffffffffffffffffffffffffffffff16815260200190815260200160002060020160009054906101000a900473ffffffffffffffffffffffffffffffffffffffff1673ffffffffffffffffffffffffffffffffffffffff166108fc479081150290604051600060405180830381858888f19350505050158015612b9a573d6000803e3d6000fd5b50600060046000600360008873ffffffffffffffffffffffffffffffffffffffff1673ffffffffffffffffffffffffffffffffffffffff16815260200190815260200160002060010160009054906101000a900473ffffffffffffffffffffffffffffffffffffffff1673ffffffffffffffffffffffffffffffffffffffff1673ffffffffffffffffffffffffffffffffffffffff16815260200190815260200160002060006101000a81548173ffffffffffffffffffffffffffffffffffffffff021916908373ffffffffffffffffffffffffffffffffffffffff1602179055507fce27f1037a1f16850157d2c9e7b76b9503e0cf3a70920a13b0921f6882d4806984604051808273ffffffffffffffffffffffffffffffffffffffff1673ffffffffffffffffffffffffffffffffffffffff16815260200191505060405180910390a15b5b50505050565b600160009054906101000a900473ffffffffffffffffffffffffffffffffffffffff1673ffffffffffffffffffffffffffffffffffffffff163373ffffffffffffffffffffffffffffffffffffffff1614612d8d576040517f08c379a00000000000000000000000000000000000000000000000000000000081526004018080602001828103825260328152602001806140b26032913960400191505060405180910390fd5b600073ffffffffffffffffffffffffffffffffffffffff166000809054906101000a900473ffffffffffffffffffffffffffffffffffffffff1673ffffffffffffffffffffffffffffffffffffffff167f5c486528ec3e3f0ea91181cff8116f02bfa350e03b8b6f12e00765adbb5af85c60405160405180910390a360008060006101000a81548173ffffffffffffffffffffffffffffffffffffffff021916908373ffffffffffffffffffffffffffffffffffffffff160217905550565b60008060009054906101000a900473ffffffffffffffffffffffffffffffffffffffff1673ffffffffffffffffffffffffffffffffffffffff163373ffffffffffffffffffffffffffffffffffffffff1614905090565b60006060612eaf613eb9565b600360008573ffffffffffffffffffffffffffffffffffffffff1673ffffffffffffffffffffffffffffffffffffffff168152602001908152602001600020604051806101800160405290816000820160009054906101000a900473ffffffffffffffffffffffffffffffffffffffff1673ffffffffffffffffffffffffffffffffffffffff1673ffffffffffffffffffffffffffffffffffffffff1681526020016001820160009054906101000a900473ffffffffffffffffffffffffffffffffffffffff1673ffffffffffffffffffffffffffffffffffffffff1673ffffffffffffffffffffffffffffffffffffffff1681526020016002820160009054906101000a900473ffffffffffffffffffffffffffffffffffffffff1673ffffffffffffffffffffffffffffffffffffffff1673ffffffffffffffffffffffffffffffffffffffff1681526020016003820160009054906101000a900473ffffffffffffffffffffffffffffffffffffffff1673ffffffffffffffffffffffffffffffffffffffff1673ffffffffffffffffffffffffffffffffffffffff168152602001600482018054600181600116156101000203166002900480601f0160208091040260200160405190810160405280929190818152602001828054600181600116156101000203166002900480156130eb5780601f106130c0576101008083540402835291602001916130eb565b820191906000526020600020905b8154815290600101906020018083116130ce57829003601f168201915b50505050508152602001600582018054600181600116156101000203166002900480601f01602080910402602001604051908101604052809291908181526020018280546001816001161561010002031660029004801561318d5780601f106131625761010080835404028352916020019161318d565b820191906000526020600020905b81548152906001019060200180831161317057829003601f168201915b50505050508152602001600682018054600181600116156101000203166002900480601f01602080910402602001604051908101604052809291908181526020018280546001816001161561010002031660029004801561322f5780601f106132045761010080835404028352916020019161322f565b820191906000526020600020905b81548152906001019060200180831161321257829003601f168201915b50505050508152602001600782018054600181600116156101000203166002900480601f0160208091040260200160405190810160405280929190818152602001828054600181600116156101000203166002900480156132d15780601f106132a6576101008083540402835291602001916132d1565b820191906000526020600020905b8154815290600101906020018083116132b457829003601f168201915b50505050508152602001600882018054600181600116156101000203166002900480601f0160208091040260200160405190810160405280929190818152602001828054600181600116156101000203166002900480156133735780601f1061334857610100808354040283529160200191613373565b820191906000526020600020905b81548152906001019060200180831161335657829003601f168201915b5050505050815260200160098201548152602001600a8201548152602001600b820160009054906101000a900460ff1660058111156133ae57fe5b60058111156133b957fe5b81525050905080602001518161010001518191508090509250925050915091565b80600260058111156133e857fe5b600360008373ffffffffffffffffffffffffffffffffffffffff1673ffffffffffffffffffffffffffffffffffffffff168152602001908152602001600020600b0160009054906101000a900460ff16600581111561344357fe5b1461344d57600080fd5b600360008373ffffffffffffffffffffffffffffffffffffffff1673ffffffffffffffffffffffffffffffffffffffff16815260200190815260200160002060020160009054906101000a900473ffffffffffffffffffffffffffffffffffffffff168073ffffffffffffffffffffffffffffffffffffffff163373ffffffffffffffffffffffffffffffffffffffff1614613534576040517f08c379a000000000000000000000000000000000000000000000000000000000815260040180806020018281038252602b8152602001806140e4602b913960400191505060405180910390fd5b8260058081111561354157fe5b600360008373ffffffffffffffffffffffffffffffffffffffff1673ffffffffffffffffffffffffffffffffffffffff168152602001908152602001600020600b0160009054906101000a900460ff16600581111561359c57fe5b14156135f3576040517f08c379a000000000000000000000000000000000000000000000000000000000815260040180806020018281038252602181526020018061403d6021913960400191505060405180910390fd5b60038060008673ffffffffffffffffffffffffffffffffffffffff1673ffffffffffffffffffffffffffffffffffffffff168152602001908152602001600020600b0160006101000a81548160ff0219169083600581111561365157fe5b02179055507fd3f68a86f12223de49195853a339b891d585a44fccd13d8a2656a7194d6f6f6784604051808273ffffffffffffffffffffffffffffffffffffffff1673ffffffffffffffffffffffffffffffffffffffff16815260200191505060405180910390a150505050565b60008060009054906101000a900473ffffffffffffffffffffffffffffffffffffffff16905090565b600160009054906101000a900473ffffffffffffffffffffffffffffffffffffffff1673ffffffffffffffffffffffffffffffffffffffff163373ffffffffffffffffffffffffffffffffffffffff161461378e576040517f08c379a00000000000000000000000000000000000000000000000000000000081526004018080602001828103825260328152602001806140b26032913960400191505060405180910390fd5b61379781613d41565b50565b60008060006137a7613eb9565b600360008673ffffffffffffffffffffffffffffffffffffffff1673ffffffffffffffffffffffffffffffffffffffff168152602001908152602001600020604051806101800160405290816000820160009054906101000a900473ffffffffffffffffffffffffffffffffffffffff1673ffffffffffffffffffffffffffffffffffffffff1673ffffffffffffffffffffffffffffffffffffffff1681526020016001820160009054906101000a900473ffffffffffffffffffffffffffffffffffffffff1673ffffffffffffffffffffffffffffffffffffffff1673ffffffffffffffffffffffffffffffffffffffff1681526020016002820160009054906101000a900473ffffffffffffffffffffffffffffffffffffffff1673ffffffffffffffffffffffffffffffffffffffff1673ffffffffffffffffffffffffffffffffffffffff1681526020016003820160009054906101000a900473ffffffffffffffffffffffffffffffffffffffff1673ffffffffffffffffffffffffffffffffffffffff1673ffffffffffffffffffffffffffffffffffffffff168152602001600482018054600181600116156101000203166002900480601f0160208091040260200160405190810160405280929190818152602001828054600181600116156101000203166002900480156139e35780601f106139b8576101008083540402835291602001916139e3565b820191906000526020600020905b8154815290600101906020018083116139c657829003601f168201915b50505050508152602001600582018054600181600116156101000203166002900480601f016020809104026020016040519081016040528092919081815260200182805460018160011615610100020316600290048015613a855780601f10613a5a57610100808354040283529160200191613a85565b820191906000526020600020905b815481529060010190602001808311613a6857829003601f168201915b50505050508152602001600682018054600181600116156101000203166002900480601f016020809104026020016040519081016040528092919081815260200182805460018160011615610100020316600290048015613b275780601f10613afc57610100808354040283529160200191613b27565b820191906000526020600020905b815481529060010190602001808311613b0a57829003601f168201915b50505050508152602001600782018054600181600116156101000203166002900480601f016020809104026020016040519081016040528092919081815260200182805460018160011615610100020316600290048015613bc95780601f10613b9e57610100808354040283529160200191613bc9565b820191906000526020600020905b815481529060010190602001808311613bac57829003601f168201915b50505050508152602001600882018054600181600116156101000203166002900480601f016020809104026020016040519081016040528092919081815260200182805460018160011615610100020316600290048015613c6b5780601f10613c4057610100808354040283529160200191613c6b565b820191906000526020600020905b815481529060010190602001808311613c4e57829003601f168201915b5050505050815260200160098201548152602001600a8201548152602001600b820160009054906101000a900460ff166005811115613ca657fe5b6005811115613cb157fe5b815250509050806101200151816101400151826101600151935093509350509193909250565b6000819050919050565b600080831415613cf45760009050613d15565b6000828402905082848281613d0557fe5b0414613d1057600080fd5b809150505b92915050565b6000808211613d2957600080fd5b6000828481613d3457fe5b0490508091505092915050565b600073ffffffffffffffffffffffffffffffffffffffff168173ffffffffffffffffffffffffffffffffffffffff161415613d7b57600080fd5b8073ffffffffffffffffffffffffffffffffffffffff166000809054906101000a900473ffffffffffffffffffffffffffffffffffffffff1673ffffffffffffffffffffffffffffffffffffffff167f5c486528ec3e3f0ea91181cff8116f02bfa350e03b8b6f12e00765adbb5af85c60405160405180910390a3806000806101000a81548173ffffffffffffffffffffffffffffffffffffffff021916908373ffffffffffffffffffffffffffffffffffffffff16021790555050565b828054600181600116156101000203166002900490600052602060002090601f016020900481019282601f10613e7a57805160ff1916838001178555613ea8565b82800160010185558215613ea8579182015b82811115613ea7578251825591602001919060010190613e8c565b5b509050613eb59190614017565b5090565b604051806101800160405280600073ffffffffffffffffffffffffffffffffffffffff168152602001600073ffffffffffffffffffffffffffffffffffffffff168152602001600073ffffffffffffffffffffffffffffffffffffffff168152602001600073ffffffffffffffffffffffffffffffffffffffff1681526020016060815260200160608152602001606081526020016060815260200160608152602001600081526020016000815260200160006005811115613f7757fe5b81525090565b604051806040016040528060008152602001600081525090565b828054600181600116156101000203166002900490600052602060002090601f016020900481019282601f10613fd857805160ff1916838001178555614006565b82800160010185558215614006579182015b82811115614005578251825591602001919060010190613fea565b5b5090506140139190614017565b5090565b61403991905b8082111561403557600081600090555060010161401d565b5090565b9056fe5269646520686173206265656e2063616e63656c2062792070617373656e67657254686973206d6574686f64207269646520697320636f6d706c657465206279206472697665725061696420616d6f756e7420697320696e73756666696369656e7420746f20636f766572207468652070726963654f6e6c7920636f6e7472616374206f776e657220697320616c6c6f77656420746f2063616c6c2074686973206d6574686f6441646472657373206973206e6f7420766572696669656420746f2063616c6c2074686973206d6574686f6441646472657373206973206e6f74207665726669656420746f2063616c6c2074686973206d6574686f6452696465206e6565647320746f2062652063616e63656c6564206265666f7265206d616b696e672061206e657720726964652ea265627a7a7231582003461b086a619c030c7baf9c96f6fbee652c2b09aecb7103ced10baa523c6b7c64736f6c63430005100032",
  "source": "pragma solidity >=0.4.24;\r\n\r\nimport '../core/Ownable.sol';\r\nimport 'openzeppelin-solidity/contracts/math/SafeMath.sol';\r\n\r\ncontract Ride is Ownable {\r\n  using SafeMath for uint256;\r\n\r\n/********************** Public Varables ***********************/\r\n  // Contract owner\r\n  address payable owner;\r\n  // Placeholder for driver address\r\n  address payable driverID;\r\n\r\n  // Define a public mapping 'items' that maps the address to a ride.\r\n  mapping (address => RideItem) items;\r\n  mapping (address => address) driverRides;\r\n  mapping (address => Txblocks) itemsHistory;\r\n\r\n  // Set default ride state\r\n  State constant defaultState = State.None;\r\n\r\n  // Enum contains ride states\r\n  enum State\r\n  {\r\n    None,\r\n    PassengerRequestRide,\r\n    DriverAcceptsRide,\r\n    PassengerConfirmsPickUp,\r\n    DriverConfirmsDropOff,\r\n    Canceled\r\n  }\r\n\r\n  // Struct contains all ride components\r\n  struct RideItem {\r\n    address ownerID;                       // Metamask-Ethereum address of the cBlockPassengerPaymentSentent owner as the product moves through 4 stages\r\n    address payable driverID;              // Metamask-Ethereum address of the driver\r\n    address payable passengerID;           // Metamask-Ethereum address of the rider\r\n    address rideID;                        // Ride ID\r\n    string  passengerName;                 // Passenger name\r\n    string  passengerVehicleRequestType;   // Passenger vehicleRequestType\r\n    string  passengerPickUpAddress;        // Passenger pickup address\r\n    string  passengerDropOffAddress;       // passenger dropoff address\r\n    string  driverVehicleDiscription;      // drivers vehicleDiscription\r\n    uint256 rideDate;                      // Ride Date: In Epoche\r\n    uint    ridePrice;                     // Ride Price\r\n    State   rideState;                     // Ride State as represented in the enum above\r\n  }\r\n\r\n// Block number stuct\r\n  struct Txblocks {\r\n    uint BlockPassengerPaymentSent; // block ether from passenger to contact\r\n    uint BlockDriverPaymentSent; // block ether from passenger to driver\r\n  }\r\n\r\n/********************** Events ***********************/\r\nevent PassengerRequestRide(address rideID);\r\nevent DriverAcceptsRide(address rideID);\r\nevent PassengerConfirmsPickUp(address rideID);\r\nevent DriverConfirmsDropOff(address rideID);\r\nevent CanceledRide(address rideID);\r\n\r\n/********************** Modifiers ***********************/\r\n  // Define a modifer that checks to see if msg.sender == owner of the contract\r\n  modifier onlyOwner() {\r\n    require(msg.sender == owner,\"Only contract owner is allowed to call this method\");\r\n    _;\r\n  }\r\n\r\n  // Define a modifer that verifies the Caller\r\n  modifier verifyCaller (address _address) {\r\n    require(msg.sender == _address,\"Address is not verified to call this method\");\r\n    _;\r\n  }\r\n\r\n  modifier verifyCallerIsRelatedToContract(address _rideID) {\r\n    require(msg.sender == items[_rideID].driverID || msg.sender == items[_rideID].passengerID,\"Address is not verfied to call this method\");\r\n    _;\r\n  }\r\n\r\n  // Modifier that checks if the paid amount is sufficient to cover the price\r\n  modifier paidEnough(uint _price) {\r\n    require(msg.value >= _price,\"Paid amount is insufficient to cover the price\");\r\n    _;\r\n  }\r\n\r\n  // Modifier that checks the price and refunds the remaining balance\r\n  modifier checkValue(uint _price, address payable addressToFund) {\r\n    uint  amountToReturn = msg.value - _price;\r\n    addressToFund.transfer(amountToReturn);\r\n    _;\r\n  }\r\n\r\n  // Modifier that checks if a passenger can request a new ride\r\n  modifier hasExistingRide(address _rideID) {\r\n    require(items[_rideID].rideState != State.DriverAcceptsRide,\"Ride needs to be canceled before making a new ride.\");\r\n    require(items[_rideID].rideState != State.PassengerConfirmsPickUp,\"Ride needs to be canceled before making a new ride.\");\r\n    _;\r\n  }\r\n\r\n\r\n  modifier isRideCanceled(address _rideID) {\r\n    require(items[_rideID].rideState != State.Canceled,\"Ride has been cancel by passenger\");\r\n    _;\r\n  }\r\n\r\n  modifier isRideComplete(address _rideID){\r\n    require(items[_rideID].rideState != State.DriverConfirmsDropOff,\"This method ride is complete by driver\");\r\n    _;\r\n  }\r\n\r\n  // RideItem State Modifiers\r\n  modifier passengerRequestedRide(address _rideID) {\r\n    require(items[ _rideID].rideState == State.PassengerRequestRide);\r\n    _;\r\n  }\r\n\r\n  modifier driverAcceptedRide(address _rideID) {\r\n    require(items[ _rideID].rideState == State.DriverAcceptsRide);\r\n    _;\r\n  }\r\n\r\n  modifier passengerConfirmedPickUp(address _rideID) {\r\n    require(items[ _rideID].rideState == State.PassengerConfirmsPickUp);\r\n    _;\r\n  }\r\n\r\n  modifier driverConfirmedDropOff(address _rideID) {\r\n    require(items[ _rideID].rideState == State.DriverConfirmsDropOff);\r\n    _;\r\n  }\r\n\r\n\r\n  /********************** Constructor & Kill Function ***********************/\r\n  constructor() public {\r\n    // Set contract owner\r\n    owner = msg.sender;\r\n  }\r\n\r\n  // Kill function to black Hole the contract\r\n  function kill() public {\r\n    if (msg.sender == owner) {\r\n      address payable ownerAddressPayable = _make_payable(owner);\r\n      selfdestruct(ownerAddressPayable);\r\n    }\r\n  }\r\n\r\n    // allows you to convert an address into a payable address\r\n  function _make_payable(address x) internal pure returns (address payable) {\r\n    return address(uint160(x));\r\n  }\r\n\r\n\r\n\r\n  /********************** Ride Functions ***********************/\r\n  // Allows for the cancelation of a ride\r\n  function cancelRide(address _rideID) public payable\r\n  verifyCallerIsRelatedToContract(_rideID)\r\n  isRideComplete(_rideID) // check if ride is complete\r\n  isRideCanceled(_rideID) // check if ride has already been canceled\r\n  {\r\n    // 25% cancelation fee goes to driver\r\n    if (items[ _rideID].rideState == State.PassengerConfirmsPickUp) {\r\n      items[ _rideID].rideState = State.Canceled;\r\n\r\n      uint256 driverAmount = items[_rideID].ridePrice.mul(2500).div(10000);\r\n      uint256 remainder = items[_rideID].ridePrice - driverAmount;\r\n\r\n      items[ _rideID].passengerID.transfer(remainder);\r\n      items[ _rideID].driverID.transfer(driverAmount);\r\n      driverRides[items[ _rideID].driverID] =  address(0x0);\r\n      emit CanceledRide(_rideID);\r\n    }else if (items[_rideID].rideState == State.DriverAcceptsRide && msg.sender == items[_rideID].driverID){\r\n      items[_rideID].rideState = State.PassengerRequestRide;\r\n      driverRides[msg.sender] =  address(0x0);\r\n      items[_rideID].driverVehicleDiscription = \"\";\r\n      items[_rideID].driverID = address(0x0);\r\n\r\n      emit PassengerRequestRide(_rideID);\r\n    }else{\r\n\r\n      items[ _rideID].rideState = State.Canceled;\r\n      items[ _rideID].passengerID.transfer(address(this).balance);\r\n      driverRides[items[ _rideID].driverID] =  address(0x0);\r\n      emit CanceledRide(_rideID);\r\n    }\r\n  }\r\n\r\n\r\n  /*\r\n   1st step in ride share\r\n   Allows passenger to request a ride with there perfered settings\r\n   Passenger ether will transfer into contract address until\r\n  */\r\n  function passengerRequestRide(\r\n                                    string memory _passengerName,\r\n                                    string memory _passengerPickUpAddress,\r\n                                    string memory _passengerDropOffAddress,\r\n                                    string memory _passengerVehicleRequestType,\r\n                                    uint _ridePrice\r\n                                ) public payable\r\n\r\n\r\n    hasExistingRide(msg.sender)        // Check if passenger has a existing ride\r\n    paidEnough(_ridePrice)             // Check if passenger has paid enough for ride\r\n    checkValue(_ridePrice, msg.sender) // Check if passenger has over paid\r\n\r\n    {\r\n\r\n    string memory _driverName;                                            // Empty drivers Name\r\n    string memory _driverVehicleDiscription;                              // Empty drivers vehicleDiscription\r\n\r\n    RideItem memory newRide;                                           // Create a new struct RideItem in memory\r\n    newRide.driverID = driverID;                                       // Ethereum address of the driver emtpy for now\r\n    newRide.rideID = msg.sender;                                       // Ethereum address of the passenger is rideId\r\n    newRide.passengerID = _make_payable(msg.sender);                   // Payable ethereum address of the passenger\r\n    newRide.passengerName = _passengerName;                            // Passenger Name\r\n    newRide.passengerPickUpAddress = _passengerPickUpAddress;          // Passenger pickup address\r\n    newRide.passengerDropOffAddress = _passengerDropOffAddress;        // Passenger dropoff address\r\n    newRide.passengerVehicleRequestType = _passengerVehicleRequestType;// Passenger request for specific vehicle\r\n    newRide.driverVehicleDiscription = _driverVehicleDiscription;      // Drive vehicle discription\r\n    newRide.ridePrice = _ridePrice;                                    // Ride Price\r\n    newRide.rideDate = now;                                            // Current date & time of ride\r\n    newRide.rideState = State.PassengerRequestRide;                    // Ride State as represented in the enum above\r\n    items[msg.sender] = newRide;                                       // Add newRide to items struct by upc\r\n\r\n    uint placeholder;                                                     // Block number place holder\r\n    Txblocks memory txBlock;                                              // create new txBlock struct\r\n    txBlock.BlockPassengerPaymentSent = block.number;                     // add block number\r\n    txBlock.BlockDriverPaymentSent = placeholder;                         // assign placeholder values\r\n\r\n    itemsHistory[msg.sender] = txBlock;                                   // add txBlock to itemsHistory mapping by upc\r\n\r\n    // Emit the appropriate event\r\n    emit PassengerRequestRide(msg.sender);\r\n  }\r\n\r\n/*\r\n2nd step in ride share\r\nAllows a driver to accept a ride\r\n*/\r\n  function driverAcceptsRide(\r\n                                address _rideID,\r\n                                string memory _driverVehicleDiscription\r\n                            ) public\r\n    passengerRequestedRide(_rideID)\r\n    isRideCanceled(_rideID)\r\n    {\r\n      driverRides[msg.sender] = _rideID;\r\n      items[_rideID].rideState = State.DriverAcceptsRide;\r\n      items[_rideID].driverID = _make_payable(msg.sender);\r\n      items[_rideID].driverVehicleDiscription = _driverVehicleDiscription;\r\n\r\n      emit DriverAcceptsRide( _rideID);\r\n  }\r\n\r\n  /*\r\n  3rd step in ride share\r\n  Allows the passenger to confirm the pickup\r\n  NOTE\r\n  - passenger is allowed to cancel the ride up to this point, Ether return back to the passenger\r\n  */\r\n  function passengerConfirmsPickUp(address _rideID) public\r\n    driverAcceptedRide(_rideID) // check items state is for passengerConfirmsPickUp\r\n    verifyCaller(items[ _rideID].passengerID)\r\n    isRideCanceled(_rideID)\r\n    {\r\n      items[ _rideID].rideState = State.PassengerConfirmsPickUp; // update state\r\n      emit PassengerConfirmsPickUp( _rideID);\r\n    }\r\n\r\n\r\n  /*\r\n  4th step in ride share\r\n  Allows drive to confirm passenger dropoff\r\n  Driver will be paid from contract address\r\n  */\r\n  function driverConfirmsDropOff(address _rideID) public\r\n    passengerConfirmedPickUp(_rideID)\r\n    verifyCaller(items[_rideID].driverID) // check if same drive as pickup\r\n    isRideCanceled(_rideID)\r\n    {\r\n      // Add block number to history mapping\r\n      itemsHistory[ _rideID].BlockPassengerPaymentSent = block.number;\r\n      // Update state\r\n      items[ _rideID].rideState = State.DriverConfirmsDropOff;\r\n      // Pay driver from contract\r\n      items[ _rideID].driverID.transfer(items[_rideID].ridePrice);\r\n      // Map drivers address to no rideID\r\n      driverRides[msg.sender] = address(0x0);\r\n      // Emit related event\r\n      emit DriverConfirmsDropOff(_rideID);\r\n  }\r\n\r\n\r\n  // allows driver address to get current rideID\r\n  function fetchDriverBuffer() public view returns (address rideID)\r\n  {\r\n    address rideid = driverRides[msg.sender];\r\n    return (rideid);\r\n  }\r\n\r\n\r\n  // Define a function 'fetchRideItemBufferOne' that fetches the data\r\n  /*\r\n  address passengerID;\r\n  string  passengerName;                 // Passenger name\r\n  string  passengerVehicleRequestType;   // Passenger vehicleRequestType\r\n  string  passengerPickUpAddress;        // Passenger pickup address\r\n  string  passengerDropOffAddress;       // passenger dropoff address\r\n  */\r\n  function fetchRideItemBufferOne(address _rideID) public view returns\r\n    //verifyCaller(items[_rideID].passengerID); // only allows the passenger to request there info\r\n    (\r\n      address passengerID,\r\n      string memory passengerName,\r\n      string memory passengerVehicleRequestType,\r\n      string memory passengerPickUpAddress,\r\n      string memory passengerDropOffAddress\r\n    )\r\n    {\r\n    // Assign values to the 8 parameters\r\n    RideItem memory item = items[ _rideID];\r\n    return\r\n    (\r\n      item.passengerID,\r\n      item.passengerName,\r\n      item.passengerVehicleRequestType,\r\n      item.passengerPickUpAddress,\r\n      item.passengerDropOffAddress\r\n    );\r\n  }\r\n\r\n  /*\r\n  address driverID;                 // Metamask-Ethereum address of the driver\r\n  string  driverVehicleDiscription; // drivers vehicleDiscription\r\n  */\r\n  function fetchRideItemBufferTwo(address _rideID) public view returns\r\n    (\r\n      address driverID,\r\n      string memory driverVehicleDiscription\r\n    )\r\n    {\r\n    // Assign values to the 8 parameters\r\n    RideItem memory item = items[ _rideID];\r\n    return\r\n    (\r\n      item.driverID,\r\n      item.driverVehicleDiscription\r\n    );\r\n  }\r\n\r\n  /*\r\n  string  rideNotes;                // Ride Notes\r\n  uint256 rideDate;                 // Ride Date\r\n  uint    ridePrice;                // Ride Price\r\n  State   rideState;                // Ride State as represented in the enum above\r\n  */\r\n  function fetchRideItemBufferThree(address _rideID) public view returns\r\n    (\r\n      uint256 rideDate,\r\n      uint ridePrice,\r\n      State rideState\r\n    )\r\n    {\r\n      RideItem memory item = items[ _rideID];\r\n      return\r\n      (\r\n        item.rideDate,\r\n        item.ridePrice,\r\n        item.rideState\r\n      );\r\n    }\r\n\r\n  // Define a function 'fetchRideItemHistory' that fetaches the data\r\n  function fetchRideItemHistory(address _rideID) public view returns\r\n    (\r\n      uint BlockPassengerToContract,\r\n      uint BlockContractToDriver\r\n    )\r\n    {\r\n      // Assign value to the parameters\r\n      Txblocks memory txblock = itemsHistory[_rideID];\r\n      return\r\n      (\r\n        txblock.BlockPassengerPaymentSent,\r\n        txblock.BlockDriverPaymentSent\r\n      );\r\n    }\r\n\r\n  }\r\n",
  "sourcePath": "/Users/tucker/Documents/SmartContracts/Decentralized-RideShare/contracts/base/Ride.sol",
  "compiler": {
    "name": "solc",
    "version": "0.5.16+commit.9c3226ce.Emscripten.clang"
  },
  "schemaVersion": "3.3.3",
  "updatedAt": "2021-04-28T18:47:12.615Z",
  "networkType": "ethereum",
  "devdoc": {
    "methods": {}
  },
  "userdoc": {
    "methods": {
      "cancelRide(address)": {
        "notice": "******************** Ride Functions **********************"
      },
      "constructor": "******************** Constructor & Kill Function **********************",
      "isOwner()": {
        "notice": "Check if the calling address is the owner of the contract"
      },
      "ownerLookup()": {
        "notice": "Look up the address of the owner"
      },
      "renounceOwnership()": {
        "notice": "Define a function to renounce ownerhip"
      },
      "transferOwnership(address)": {
        "notice": "Define a public function to transfer ownership"
      }
    }
  }
}