{
  "contractName": "UserRole",
  "abi": [
    {
      "inputs": [],
      "payable": false,
      "stateMutability": "nonpayable",
      "type": "constructor"
    },
    {
      "anonymous": false,
      "inputs": [
        {
          "indexed": true,
          "internalType": "address",
          "name": "account",
          "type": "address"
        }
      ],
      "name": "UserAdded",
      "type": "event"
    },
    {
      "anonymous": false,
      "inputs": [
        {
          "indexed": true,
          "internalType": "address",
          "name": "account",
          "type": "address"
        }
      ],
      "name": "UserRemoved",
      "type": "event"
    },
    {
      "constant": true,
      "inputs": [
        {
          "internalType": "address",
          "name": "account",
          "type": "address"
        }
      ],
      "name": "isUser",
      "outputs": [
        {
          "internalType": "bool",
          "name": "",
          "type": "bool"
        }
      ],
      "payable": false,
      "stateMutability": "view",
      "type": "function"
    },
    {
      "constant": false,
      "inputs": [
        {
          "internalType": "address",
          "name": "account",
          "type": "address"
        }
      ],
      "name": "addUser",
      "outputs": [],
      "payable": false,
      "stateMutability": "nonpayable",
      "type": "function"
    },
    {
      "constant": false,
      "inputs": [],
      "name": "renounceUser",
      "outputs": [],
      "payable": false,
      "stateMutability": "nonpayable",
      "type": "function"
    }
  ],
  "bytecode": "0x608060405234801561001057600080fd5b506100203361002560201b60201c565b610154565b61003d81600061008360201b6102311790919060201c565b8073ffffffffffffffffffffffffffffffffffffffff167f19ef9a4877199f89440a26acb26895ec02ed86f2df1aeaa90dc18041b892f71f60405160405180910390a250565b61009382826100fb60201b60201c565b1561009d57600080fd5b60018260000160008373ffffffffffffffffffffffffffffffffffffffff1673ffffffffffffffffffffffffffffffffffffffff16815260200190815260200160002060006101000a81548160ff0219169083151502179055505050565b60008260000160008373ffffffffffffffffffffffffffffffffffffffff1673ffffffffffffffffffffffffffffffffffffffff16815260200190815260200160002060009054906101000a900460ff16905092915050565b610349806101636000396000f3fe608060405234801561001057600080fd5b50600436106100415760003560e01c80634209fff114610046578063421b2d8b146100a2578063e5e93deb146100e6575b600080fd5b6100886004803603602081101561005c57600080fd5b81019080803573ffffffffffffffffffffffffffffffffffffffff1690602001909291905050506100f0565b604051808215151515815260200191505060405180910390f35b6100e4600480360360208110156100b857600080fd5b81019080803573ffffffffffffffffffffffffffffffffffffffff16906020019092919050505061010d565b005b6100ee610119565b005b600061010682600061012490919063ffffffff16565b9050919050565b6101168161017d565b50565b610122336101d7565b565b60008260000160008373ffffffffffffffffffffffffffffffffffffffff1673ffffffffffffffffffffffffffffffffffffffff16815260200190815260200160002060009054906101000a900460ff16905092915050565b61019181600061023190919063ffffffff16565b8073ffffffffffffffffffffffffffffffffffffffff167f19ef9a4877199f89440a26acb26895ec02ed86f2df1aeaa90dc18041b892f71f60405160405180910390a250565b6101eb8160006102a390919063ffffffff16565b8073ffffffffffffffffffffffffffffffffffffffff167fe9dce8c992623ce791725b21e857e33248d1f190a25b5168313420eebdaae99d60405160405180910390a250565b61023b8282610124565b1561024557600080fd5b60018260000160008373ffffffffffffffffffffffffffffffffffffffff1673ffffffffffffffffffffffffffffffffffffffff16815260200190815260200160002060006101000a81548160ff0219169083151502179055505050565b6102ad8282610124565b6102b657600080fd5b60008260000160008373ffffffffffffffffffffffffffffffffffffffff1673ffffffffffffffffffffffffffffffffffffffff16815260200190815260200160002060006101000a81548160ff021916908315150217905550505056fea265627a7a723158206c5d14010ffc81f861f953aaf1d0e349334ee0519995ace137100ac77a522a1e64736f6c63430005100032",
  "source": "pragma solidity >=0.4.24;\n\n// Import the library 'Roles'\nimport \"./Roles.sol\";\nimport '../accessControl/Driver.sol';\n\n// Define a contract 'UserRole' to manage this role - add, remove, check\ncontract UserRole {\n  using Roles for Roles.Role;\n\n  // Define 2 events, one for Adding, and other for Removing\n  event UserAdded(address indexed account);\n  event UserRemoved(address indexed account);\n\n  // Define a struct 'Users' by inheriting from 'Roles' library, struct Role\n  Roles.Role private Users;\n\n  // In the constructor make the address that deploys this contract the 1st User\n  constructor() public {\n    _addUser(msg.sender);\n  }\n\n  // Define a modifier that checks to see if msg.sender has the appropriate role\n  modifier onlyUser() {\n    require(isUser(msg.sender));\n    _;\n  }\n\n\n  // Define a function 'isUser' to check this role\n  function isUser(address account) public view returns (bool) {\n    return Users.has(account);\n  }\n\n  // Define a function 'addUser' that adds this role\n  function addUser(address account) public\n  {\n    _addUser(account);\n  }\n\n  // Define a function 'renounceUser' to renounce this role\n  function renounceUser() public {\n    _removeUser(msg.sender);\n  }\n\n  // Define an internal function '_addUser' to add this role, called by 'addUser'\n  function _addUser(address account) internal {\n    Users.add(account);\n    emit UserAdded(account);\n  }\n\n  // Define an internal function '_removeUser' to remove this role, called by 'removeUser'\n  function _removeUser(address account) internal {\n    Users.remove(account);\n    emit UserRemoved(account);\n  }\n}\n",
  "sourcePath": "/Users/tucker/Documents/SmartContracts/Decentralized-RideShare/contracts/accessControl/User.sol",
  "compiler": {
    "name": "solc",
    "version": "0.5.16+commit.9c3226ce.Emscripten.clang"
  },
  "schemaVersion": "3.3.3",
  "updatedAt": "2021-04-19T01:57:41.519Z",
  "devdoc": {
    "methods": {}
  },
  "userdoc": {
    "methods": {}
  }
}